:020000040800F2
:10000000005000205986000881850008838500087B
:1000100085850008878500088985000800000000A4
:100020000000000000000000000000008B850008B8
:100030008D850008000000008F850008918500086C
:10004000A1860008A1860008A1860008A1860008F4
:10005000A1860008A1860008A1860008A1860008E4
:10006000A1860008A1860008A1860008A1860008D4
:10007000A1860008A1860008A1850008AD850008BA
:10008000B9850008C5850008A1860008A18600087A
:10009000A1860008A1860008A1860008A1860008A4
:1000A000A1860008A1860008A1860008A186000894
:1000B000D1850008DD850008E9850008A1860008D3
:1000C000A1860008A1860008A1860008A186000874
:1000D000A1860008F585000801860008A1860008B1
:1000E000A1860008A1860008A18600080000000083
:1000F0000000000000000000000000000000000000
:0C01000000000000000000005FF808F1A3
:1001100010B5054C237833B9044B13B10448AFF341
:1001200000800123237010BD800400200000000027
:1001300070B2000808B5034B1BB103490348AFF385
:10014000008008BD000000008404002070B2000898
:10015000034613F8012B002AFBD1181A0138704707
:1001600081F0004102E000BF83F0004330B54FEA68
:1001700041044FEA430594EA050F08BF90EA020FD5
:100180001FBF54EA000C55EA020C7FEA645C7FEA68
:10019000655C00F0E2804FEA5454D4EB5555B8BF8B
:1001A0006D420CDD2C4480EA020281EA030382EAFC
:1001B000000083EA010180EA020281EA0303362D8E
:1001C00088BF30BD11F0004F4FEA01314FF4801C61
:1001D0004CEA113102D0404261EB410113F0004F73
:1001E0004FEA03334CEA133302D0524263EB43032A
:1001F00094EA050F00F0A780A4F10104D5F1200EC8
:100200000DDB02FA0EFC22FA05F2801841F1000122
:1002100003FA0EF2801843FA05F359410EE0A5F1F6
:1002200020050EF1200E012A03FA0EFC28BF4CF027
:10023000020C43FA05F3C01851EBE37101F00045DD
:1002400007D54FF0000EDCF1000C7EEB00006EEBEA
:100250000101B1F5801F1BD3B1F5001F0CD3490874
:100260005FEA30004FEA3C0C04F101044FEA4452CB
:1002700012F5800F80F09A80BCF1004F08BF5FEA52
:10028000500C50F1000041EB045141EA050130BD32
:100290005FEA4C0C404141EB010111F4801FA4F1D5
:1002A0000104E9D191F0000F04BF01460020B1FA2A
:1002B00081F308BF2033A3F10B03B3F120020CDA62
:1002C0000C3208DD02F1140CC2F10C0201FA0CF040
:1002D00021FA02F10CE002F11402D8BFC2F1200CA5
:1002E00001FA02F120FA0CFCDCBF41EA0C0190405B
:1002F000E41AA2BF01EB0451294330BD6FEA0404A4
:100300001F3C1CDA0C340EDC04F11404C4F120028E
:1003100020FA04F001FA02F340EA030021FA04F3A0
:1003200045EA030130BDC4F10C04C4F1200220FAF7
:1003300002F001FA04F340EA0300294630BD21FA35
:1003400004F0294630BD94F0000F83F4801306BFFB
:1003500081F480110134013D4EE77FEA645C18BFEF
:100360007FEA655C29D094EA050F08BF90EA020F86
:1003700005D054EA000C04BF1946104630BD91EA7E
:10038000030F1EBF0021002030BD5FEA545C05D181
:100390004000494128BF41F0004130BD14F58004C0
:1003A0003CBF01F5801130BD01F0004545F0FE4134
:1003B00041F470014FF0000030BD7FEA645C1ABF69
:1003C000194610467FEA655C1CBF0B46024650EAA0
:1003D000013406BF52EA033591EA030F41F40021CC
:1003E00030BD00BF90F0000F04BF0021704730B552
:1003F0004FF4806404F132044FF000054FF0000127
:1004000050E700BF90F0000F04BF0021704730B5E7
:100410004FF4806404F1320410F0004548BF4042BC
:100420004FF000013EE700BF42004FEAE2014FEA11
:1004300031014FEA02701FBF12F07F4393F07F4FEC
:1004400081F06051704792F0000F14BF93F07F4F1E
:10045000704730B54FF4607401F0004521F0004161
:1004600020E700BF50EA010208BF704730B54FF0E7
:1004700000050AE050EA010208BF704730B511F0EC
:10048000004502D5404261EB41014FF4806404F124
:1004900032045FEA915C3FF4DCAE4FF003025FEAA6
:1004A000DC0C18BF03325FEADC0C18BF033202EB2E
:1004B000DC02C2F1200300FA03FC20FA02F001FA88
:1004C00003FE40EA0E0021FA02F11444C1E600BF27
:1004D00070B54FF0FF0C4CF4E06C1CEA11541DBFDA
:1004E0001CEA135594EA0C0F95EA0C0F00F0DEF8A5
:1004F0002C4481EA030621EA4C5123EA4C5350EA8A
:10050000013518BF52EA033541F4801143F48013DA
:1005100038D0A0FB02CE4FF00005E1FB02E506F06B
:100520000042E0FB03E54FF00006E1FB03569CF0C0
:10053000000F18BF4EF0010EA4F1FF04B6F5007FC6
:1005400064F5407404D25FEA4E0E6D4146EB060638
:1005500042EAC62141EA55514FEAC52040EA5E50C1
:100560004FEACE2EB4F1FD0C88BFBCF5E06F1ED86B
:10057000BEF1004F08BF5FEA500E50F1000041EBA2
:10058000045170BD06F0004646EA010140EA02004F
:1005900081EA0301B4EB5C04C2BFD4EB0C0541EA71
:1005A000045170BD41F480114FF0000E013C00F386
:1005B000AB8014F1360FDEBF002001F0004170BDAA
:1005C000C4F10004203C35DA0C341BDC04F11404C3
:1005D000C4F1200500FA05F320FA04F001FA05F24F
:1005E00040EA020001F0004221F0004110EBD3701C
:1005F00021FA04F642EB06015EEA430E08BF20EA48
:10060000D37070BDC4F10C04C4F1200500FA04F3EA
:1006100020FA05F001FA04F240EA020001F000417C
:1006200010EBD37041F100015EEA430E08BF20EAEF
:10063000D37070BDC4F1200500FA05F24EEA020E37
:1006400020FA04F301FA05F243EA020321FA04F066
:1006500001F0004121FA04F220EA020000EBD3701D
:100660005EEA430E08BF20EAD37070BD94F0000F1D
:100670000FD101F00046400041EB010111F4801F51
:1006800008BF013CF7D041EA060195F0000F18BF02
:10069000704703F00046520043EB030313F4801F3E
:1006A00008BF013DF7D043EA0603704794EA0C0FF8
:1006B0000CEA135518BF95EA0C0F0CD050EA41060E
:1006C00018BF52EA4306D1D181EA030101F000418B
:1006D0004FF0000070BD50EA410606BF10461946B3
:1006E00052EA430619D094EA0C0F02D150EA0136BF
:1006F00013D195EA0C0F05D152EA03361CBF104600
:1007000019460AD181EA030101F0004141F0FE419E
:1007100041F470014FF0000070BD41F0FE4141F422
:10072000780170BD70B54FF0FF0C4CF4E06C1CEA22
:1007300011541DBF1CEA135594EA0C0F95EA0C0FD7
:1007400000F0A7F8A4EB050481EA030E52EA033592
:100750004FEA013100F088804FEA03334FF08055B3
:1007600045EA131343EA12634FEA022245EA1115E0
:1007700045EA10654FEA00260EF000419D4208BF91
:10078000964244F1FD0404F5407402D25B084FEA3E
:100790003202B61A65EB03055B084FEA32024FF4EA
:1007A00080104FF4002CB6EB020E75EB030E22BF47
:1007B000B61A754640EA0C005B084FEA3202B6EB07
:1007C000020E75EB030E22BFB61A754640EA5C00B6
:1007D0005B084FEA3202B6EB020E75EB030E22BF46
:1007E000B61A754640EA9C005B084FEA3202B6EB47
:1007F000020E75EB030E22BFB61A754640EADC0006
:1008000055EA060E18D04FEA051545EA16754FEA67
:1008100006164FEAC30343EA52734FEAC2025FEA85
:100820001C1CC0D111F4801F0BD141EA00014FF014
:1008300000004FF0004CB6E711F4801F04BF0143E5
:100840000020B4F1FD0C88BFBCF5E06F3FF6AFAE01
:10085000B5EB030C04BFB6EB020C5FEA500C50F191
:10086000000041EB045170BD0EF0004E4EEA113114
:1008700014EB5C04C2BFD4EB0C0541EA045170BD1B
:1008800041F480114FF0000E013C90E645EA060E5F
:100890008DE60CEA135594EA0C0F08BF95EA0C0F8D
:1008A0003FF43BAF94EA0C0F0AD150EA01347FF4D5
:1008B00034AF95EA0C0F7FF425AF104619462CE7AC
:1008C00095EA0C0F06D152EA03353FF4FDAE10460F
:1008D000194622E750EA410618BF52EA43067FF460
:1008E000C5AE50EA41047FF40DAF52EA43057FF4F0
:1008F000EBAE12E74FF0FF3C06E000BF4FF0010CFB
:1009000002E000BF4FF0010C4DF804CD4FEA410C5E
:100910007FEA6C5C4FEA430C18BF7FEA6C5C1BD02B
:1009200001B050EA410C0CBF52EA430C91EA030FAC
:1009300002BF90EA020F0020704710F1000F91EA09
:10094000030F58BF994208BF90422CBFD8176FEAD7
:10095000E37040F0010070474FEA410C7FEA6C5CA5
:1009600002D150EA013C07D14FEA430C7FEA6C5CAC
:10097000D6D152EA033CD3D05DF8040B704700BFD8
:100980008446104662468C461946634600E000BF26
:1009900001B5FFF7B7FF002848BF10F1000F01BDF8
:1009A0004DF808EDFFF7F4FF0CBF012000205DF8C3
:1009B00008FB00BF4DF808EDFFF7EAFF34BF012048
:1009C00000205DF808FB00BF4DF808EDFFF7E0FFE1
:1009D00094BF012000205DF808FB00BF4DF808ED32
:1009E000FFF7CEFF94BF012000205DF808FB00BF99
:1009F0004DF808EDFFF7C4FF34BF012000205DF87B
:100A000008FB00BF4FEA410C7FEA6C5C02D150EA60
:100A1000013C0AD14FEA430C7FEA6C5C02D152EAF6
:100A2000033C02D14FF0000070474FF001007047C7
:100A30004FEA4102B2F1E04324BFB3F5001CDCF100
:100A4000FE5C0DD901F0004C4FEAC0024CEA507038
:100A5000B2F1004F40EB830008BF20F00100704767
:100A600011F0804F21D113F13872BCBF01F000406A
:100A7000704741F480114FEA5252C2F11802C2F19C
:100A8000200C10FA0CF320FA02F018BF40F001001D
:100A90004FEAC1234FEAD32303FA0CFC40EA0C00CF
:100AA00023FA02F34FEA4303CCE77FEA625307D10C
:100AB00050EA01331EBF4FF0FE4040F44000704743
:100AC00001F0004040F0FE4040F40000704700BFDD
:100AD00080F0004002E000BF81F0004142001FBFF3
:100AE0005FEA410392EA030F7FEA226C7FEA236CFC
:100AF0006AD04FEA1262D2EB1363C1BFD2184140F1
:100B000048404140B8BF5B42192B88BF704710F086
:100B1000004F40F4000020F07F4018BF404211F029
:100B2000004F41F4000121F07F4118BF494292EA91
:100B3000030F3FD0A2F1010241FA03FC10EB0C00BD
:100B4000C3F1200301FA03F100F0004302D549424A
:100B500060EB4000B0F5000F13D3B0F1807F06D3F7
:100B600040084FEA310102F10102FE2A51D2B1F1EF
:100B7000004F40EBC25008BF20F0010040EA0300E4
:100B80007047490040EB000010F4000FA2F1010291
:100B9000EDD1B0FA80FCACF1080CB2EB0C0200FA1B
:100BA0000CF0AABF00EBC25052421843BCBFD04069
:100BB0001843704792F0000F81F4000106BF80F4E3
:100BC00000000132013BB5E74FEA41037FEA226CA6
:100BD00018BF7FEA236C21D092EA030F04D092F071
:100BE000000F08BF0846704790EA010F1CBF0020A5
:100BF000704712F07F4F04D1400028BF40F0004002
:100C0000704712F100723CBF00F50000704700F021
:100C1000004343F0FE4040F4000070477FEA226248
:100C200016BF08467FEA23630146420206BF5FEA19
:100C3000412390EA010F40F4800070474FF0000319
:100C400004E000BF10F0004348BF40425FEA000CE0
:100C500008BF704743F0964301464FF000001CE088
:100C600050EA010208BF70474FF000030AE000BFDE
:100C700050EA010208BF704711F0004302D540421C
:100C800061EB41015FEA010C02BF8446014600208E
:100C900043F0B64308BFA3F18053A3F50003BCFAA9
:100CA0008CF2083AA3EBC25310DB01FA02FC634456
:100CB00000FA02FCC2F12002BCF1004F20FA02F25D
:100CC00043EB020008BF20F00100704702F1200250
:100CD00001FA02FCC2F1200250EA4C0021FA02F2B1
:100CE00043EB020008BF20EADC7070474FF0FF0CB6
:100CF0001CEAD0521EBF1CEAD15392EA0C0F93EAB1
:100D00000C0F6FD01A4480EA010C400218BF5FEA52
:100D100041211ED04FF0006343EA501043EA5111C5
:100D2000A0FB01310CF00040B1F5000F3EBF4900BF
:100D300041EAD3715B0040EA010062F17F02FD2AC3
:100D40001DD8B3F1004F40EBC25008BF20F00100A6
:100D5000704790F0000F0CF0004C08BF49024CEABD
:100D6000502040EA51207F3AC2BFD2F1FF0340EA4F
:100D7000C250704740F400004FF00003013A5DDCC0
:100D800012F1190FDCBF00F000407047C2F1000201
:100D9000410021FA02F1C2F1200200FA02FC5FEAEE
:100DA000310040F1000053EA4C0308BF20EADC7038
:100DB000704792F0000F00F0004C02BF400010F4AA
:100DC000000F013AF9D040EA0C0093F0000F01F057
:100DD000004C02BF490011F4000F013BF9D041EA79
:100DE0000C018FE70CEAD15392EA0C0F18BF93EA7B
:100DF0000C0F0AD030F0004C18BF31F0004CD8D1A5
:100E000080EA010000F00040704790F0000F17BF2B
:100E100090F0004F084691F0000F91F0004F14D071
:100E200092EA0C0F01D142020FD193EA0C0F03D1C9
:100E30004B0218BF084608D180EA010000F00040CC
:100E400040F0FE4040F40000704740F0FE4040F4A7
:100E5000400070474FF0FF0C1CEAD0521EBF1CEA46
:100E6000D15392EA0C0F93EA0C0F69D0A2EB030264
:100E700080EA010C49024FEA402037D04FF08053FE
:100E800043EA111143EA10130CF000408B4238BFC3
:100E90005B0042F17D024FF4000C8B4224BF5B1AD1
:100EA00040EA0C00B3EB510F24BFA3EB510340EA1F
:100EB0005C00B3EB910F24BFA3EB910340EA9C00CD
:100EC000B3EBD10F24BFA3EBD10340EADC001B013D
:100ED00018BF5FEA1C1CE0D1FD2A3FF650AF8B42E1
:100EE00040EBC25008BF20F0010070470CF0004CEE
:100EF0004CEA50207F32C2BFD2F1FF0340EAC25019
:100F0000704740F400004FF00003013A37E792F0D9
:100F1000000F00F0004C02BF400010F4000F013A37
:100F2000F9D040EA0C0093F0000F01F0004C02BF32
:100F3000490011F4000F013BF9D041EA0C0195E79B
:100F40000CEAD15392EA0C0F08D142027FF47DAF34
:100F500093EA0C0F7FF470AF084676E793EA0C0F24
:100F600004D14B023FF44CAF08466EE730F0004C22
:100F700018BF31F0004CCAD130F000427FF45CAFB2
:100F800031F000437FF43CAF5FE700BF4FF0FF3C20
:100F900006E000BF4FF0010C02E000BF4FF0010C73
:100FA0004DF804CD4FEA40024FEA41037FEA226C3C
:100FB00018BF7FEA236C11D001B052EA530C18BF5E
:100FC00090EA010F58BFB2EB030088BFC81738BFC3
:100FD0006FEAE17018BF40F0010070477FEA226CB1
:100FE00002D15FEA402C05D17FEA236CE4D15FEAAD
:100FF000412CE1D05DF8040B704700BF84460846E1
:101000006146FFE70FB5FFF7C9FF002848BF10F1A1
:10101000000F0FBD4DF808EDFFF7F4FF0CBF0120E6
:1010200000205DF808FB00BF4DF808EDFFF7EAFF70
:1010300034BF012000205DF808FB00BF4DF808ED2B
:10104000FFF7E0FF94BF012000205DF808FB00BF20
:101050004DF808EDFFF7D2FF94BF012000205DF8A6
:1010600008FB00BF4DF808EDFFF7C8FF34BF0120B3
:1010700000205DF808FB00BF4FEA40024FEA410341
:101080007FEA226C02D15FEA402C08D17FEA236C10
:1010900002D15FEA412C02D14FF0000070474FF0BF
:1010A000010070474FEA4002B2F1FE4F0FD34FF0FC
:1010B0009E03B3EB12620DD94FEA002343F00043C5
:1010C00010F0004F23FA02F018BF404270474FF073
:1010D0000000704712F1610F01D1420205D110F0FA
:1010E000004008BF6FF0004070474FF000007047AD
:1010F00038B50E4B054618784FF47A73B3FBF0F30E
:101100000B4A1068B0FBF3F000F000FB044658B93E
:101110000F2D09D8024629464FF0FF3000F0B6FAED
:10112000044B20461D6038BD012038BD0000002062
:101130001004002004000020074A08B513680320AB
:1011400043F01003136000F08FFA0020FFF7D0FF88
:1011500007F01CF8002008BD00200240034A044BA1
:1011600011681B780B441360704700BF4C070020C8
:1011700000000020014B1868704700BF4C0700209A
:1011800038B50446FFF7F6FF0546631C1EBF044B47
:101190001B78E418FFF7EEFF401B8442FAD838BDF5
:1011A00000000020F7B5002604460D460196FFF723
:1011B000E1FF236807469A68D20508D50120A36A93
:1011C00084F8246043F02003A36203B0F0BD5A68A2
:1011D000D60503D4DB6A13F4700F3BD03A4B0220E0
:1011E0001E6801F055FE2368384A1969B6FBF0F015
:1011F0001142374A4FD1DE6836490E424BD1196948
:10120000114259D1DA68344B1A4214BF29231423EE
:1012100000FB03F6019B9E4220D96B1C05D05DB1FB
:10122000FFF7A8FFC01B854206D3019B0133019342
:10123000F0E7681C0FD045B9A36A032043F004030C
:10124000A362002384F82430BFE7FFF793FFC01B9D
:101250008542F1D3226813689907EAD56FF012032B
:1012600022681360A36A43F40073A362936803F4D3
:101270006023B3F5602F25D1E3681BBBA36A23F479
:101280008073A362A06A10F480501BD1A36A43F05C
:101290000103A36299E71969114203D1D9680E4A83
:1012A00011420BD019690D4A114209D1DB68134272
:1012B00014BFFC235423ABE72923A9E75423A7E752
:1012C000FC23A5E7002080E7100400202449922495
:1012D0009224491224499200922449004992240000
:1012E0000368D86C70470000002373B5019390F831
:1012F0002430012B74D001234D6880F82430062D52
:1013000002684FEA85030C6825D82B441F25566BCD
:10131000053B9D4026EA050504FA03F32B4353637E
:10132000092C4FEA44038D682FD907262344D1683E
:101330001E3B9E4021EA060105FA03F30B43D360EE
:10134000A4F11003012B2BD90023002280F82420C4
:10135000184602B070BD0C2D0BD82B441F25166B00
:10136000233B9D4026EA050504FA03F32B43136350
:10137000D6E72B441F25D66A413B9D4026EA05054A
:1013800004FA03F32B43D362CAE707261169234407
:101390009E4021EA060105FA03F30B431361CFE7F0
:1013A000104B9A4216D193681B02CDD49368102C2F
:1013B00043F400039360C7D10B4B0C4A1B68B3FB8B
:1013C000F2F20A2353430193019B002BBCD0019BF3
:1013D000013BF8E7836A43F0200383620123B4E70B
:1013E0000223B5E7002401401004002040420F0012
:1013F000002373B50193036804469A68D20702D5A7
:10140000002002B070BD9A6842F001029A60124B4F
:10141000124A1B68B3FBF2F30193019BC3B9FFF7B8
:10142000A9FE064623689D6815F00105E8D1FFF77F
:10143000A1FE801B0228F5D9A36A84F8245043F04A
:101440001003A362E36A012043F00103E362D8E7DB
:10145000019B013BE0E700BF1004002040420F0069
:1014600090F8243010B5012B044654D0012380F8A5
:101470002430FFF7BDFF002849D1A36A274A23F48F
:10148000407323F0010343F48073A3622368934203
:1014900004D123494A6812F4702F2ED1A26A22F493
:1014A0008012A2625A68520541BFA26A22F44052D9
:1014B00042F48052A262A26A12F480521CBFE26A15
:1014C00022F00602E262002284F824206FF0020279
:1014D0001A609A6802F46022B2F5602F13D10F4AA5
:1014E000934205D1A2F58062526812F4702F0AD19E
:1014F0009A6842F4A0029A6010BDA26A42F4801277
:10150000A2624A68CFE79A6842F48012F3E70023A8
:1015100084F8243010BD022010BD00BF0028014017
:101520000024014038B5036804469A68D20701D404
:10153000002038BD9A6822F001029A60FFF71AFE77
:10154000054623689B68DB07F2D5FFF713FE401BB7
:101550000228F6D9A36A012043F01003A362E36ACC
:1015600043F00103E36238BD70B50446002871D032
:10157000836A23B9C36280F8243006F029FE20462E
:10158000FFF7D0FFA36A13F0100FA36A64D10028FD
:1015900062D1E16923F48853626823F0020343F0C7
:1015A00002030A43A168A362E368B1F5807F42EABF
:1015B000430238D0012914BF06464FF4807665698E
:1015C000012D07D1002B30D1A369013B46EA4335F9
:1015D00045F400662368B1F5807F5D6825F46945B0
:1015E00045EA06055D609E681D4D05EA060545EA6B
:1015F00002059D6001D0012920D121690139090529
:10160000DD6A25F470052943D9629968154B0B40B2
:101610009A4215D10023E362A36A23F0030343F047
:101620000103A36270BD0E46C9E7A36A43F020031D
:10163000A362E36A43F00103E362CBE70021DFE743
:10164000A36A23F0120343F01003A362E36A43F09A
:101650000103E362012070BD43F01003A362F9E7C8
:10166000FDF7E1FFFE0E1FFF074A0002D36800F4FA
:10167000E06023F4E0631B041B0C43F0BF6343F4FE
:1016800000330343D360704700ED00E0174B30B5E3
:10169000DC68C4F30224C4F10703251D042B28BF12
:1016A0000423062D4FF0010598BF002405FA03F32B
:1016B00003F1FF3388BF033C1940A14005FA04F44D
:1016C000013C2240002842EA01024FEA0212AFBF69
:1016D00000F16040064B00F00F00D2B2A5BFD2B2BD
:1016E00000F561401A5480F8002330BD00ED00E0A1
:1016F00014ED00E00123420900F01F0003FA00F09E
:10170000014B43F82200704700E100E00138B0F1DE
:10171000807F0AD2F021064B064A586082F82310D7
:101720000020072298601A6070470120704700BFB0
:1017300010E000E000ED00E0044B04281A680CBF44
:1017400042F0040222F004021A60704710E000E048
:1017500008B506F09FF808BD10B550B31422016813
:10176000154B84680B44B3FBF2F39B000364134BEB
:101770000A68C363436822F47F522343C46822F09B
:101780003002234304692343446923438469234388
:10179000C469234313430B600122002380F82120F6
:1017A0008362C36203634363836380F82030184617
:1017B00010BD012010BD00BFF8FFFDBF00000240BA
:1017C000F0B590F82040012C35D0012490F821503C
:1017D00080F82040A5424FF000064FF0020428D1C7
:1017E00080F82140046886632668076C26F00106AD
:1017F0002660C66BBD407560636043680568102B4A
:10180000C36A0BBFA260A160E160E2604BB12368D4
:1018100043F00E0323602B68002043F001032B608C
:10182000F0BD236823F004032360236843F00A0318
:10183000F0E780F820600220F0BD000090F8213031
:1018400010B5022B03D004238363012010BD03686D
:101850001A6822F00E021A601A6822F001021A6059
:10186000184A93421FD0143293421ED0143293422E
:101870001DD0143293421DD0143293421DD0143225
:1018800093420CBF4FF480134FF080730E4A002434
:101890005360012380F82130436B80F820407BB1F6
:1018A0009847204610BD0123F0E71023EEE74FF4E0
:1018B0008073EBE74FF48053E8E74FF48033E5E7BC
:1018C000184610BD080002400000024070B4042514
:1018D000C66B026C3468036895402542196832D0A3
:1018E0004D0730D51A6896065EBF1A6822F00402CA
:1018F0001A603E4A934219D01432934218D01432DF
:10190000934217D01432934217D01432934217D017
:10191000143293420CBF4FF480034FF08063344A7B
:101920005360C36A002B5ED070BC18470423F6E7EF
:101930004023F4E74FF48063F1E74FF48043EEE790
:101940004FF48023EBE702259540254235D08D07E3
:1019500033D51A68940606D41A6822F00A021A606F
:10196000012280F82120214A934219D01432934257
:1019700018D01432934217D01432934217D0143235
:10198000934217D0143293420CBF4FF400134FF020
:101990000073174A5360002380F82030836AC1E740
:1019A0000223F6E72023F4E74FF40073F1E74FF446
:1019B0000053EEE74FF40033EBE70825954025424E
:1019C00011D009070FD5196821F00E011960012304
:1019D00003FA02F27260836380F82130002380F8FA
:1019E0002030036B9EE770BC704700BF08000240C8
:1019F000000002402DE9F74F00221646654BDFF844
:101A0000A4E1DFF8A4C14FF001080C6808FA06F859
:101A100008EA0404A0457FD14D68122D00F0AF8084
:101A200000F28880022D00F0A7807CD8002D00F005
:101A30008E80012D00F09E804FF00F09FF2C93BF88
:101A4000824606F18045083DD0F800B092BFB5004F
:101A5000D0F804B0AD0009FA05F82BEA080802FA3C
:101A600005F588BF00F1040A48EA0505CAF80050E8
:101A7000D1F804A01AF0805F4ED0474D464FAD69B3
:101A800026F0030845F00105BD61BD6908F18048F5
:101A900005F00105019508F5803806F0030B019D5E
:101AA0004FEA8B0BD8F8085009FA0BF925EA090917
:101AB0003A4DA84268D005F58065A84266D005F584
:101AC0008065A84264D005F58065A8420CBF032557
:101AD000042505FA0BF545EA0905C8F808501D6804
:101AE0001AF4803F14BF2543A5431D605D681AF4B6
:101AF000003F14BF2543A5435D609D681AF4801F15
:101B000014BF2543A5439D60DD681AF4001F14BF70
:101B10002C4325EA0404DC600136102E7FF473AFF9
:101B200003B0BDE8F08F032D22D0112D84D1CA68F7
:101B3000043281E71A4FBD4209D012D8DFF86C9009
:101B40004D4504D009F580394D457FF475AF8A685D
:101B5000C2B1012A0CBFC0F81080C0F8148008225E
:101B60006AE77545F3D06545F1D0DFF84490EBE7BF
:101B7000002261E7CA685FE7CA6808325CE7CA68A2
:101B80000C3259E7042257E70025A2E70125A0E718
:101B900002259EE7000401400010024000080140B9
:101BA0000000211000003110000032100000111060
:101BB000000022100AB1016170470904FBE7C36805
:101BC0005940C16070470268536913F480630DD0B7
:101BD0006FF48063536104232022036400230363B2
:101BE00080F83C3080F83D2001207047184670474F
:101BF0002DE9F843044617469946C1F307488EB2CB
:101C00002568B8F1010F0CBF6B69AB6936EA0303B5
:101C100014BF0120002008B9BDE8F8836B695A059C
:101C200012D52B68202243F400732B606FF480637D
:101C30006B610423236400230120236384F83C3078
:101C400084F83D20BDE8F8837B1CD9D04FB9002330
:101C50002022236384F83C3084F83D200320BDE833
:101C6000F883FFF787FAA0EB09008742C8D2EEE7B6
:101C70002DE9F843044690461F46089EC1F30749E4
:101C80008DB22368B9F1010F0CBF5B699B6935EA1E
:101C900003030CBF01230023434502D00020BDE80D
:101CA000F8837B1CEDD05FB900232022236384F8E6
:101CB0003C3084F83D20032084F83E30BDE8F883B2
:101CC000FFF758FA801B8742DBD2EDE770B5044678
:101CD0000D46164623685B691B0601D5002070BDC2
:101CE0002046FFF770FFA8B96A1CF3D065B9236CD2
:101CF000202243F02003236400230320236384F87D
:101D00003C3084F83D2070BDFFF734FA801B8542DB
:101D1000E0D2ECE7012070BD2DE9FF4115460268D5
:101D2000984613680B9E43F4807313600F46009629
:101D30000A9B00224FF001110446FFF799FF68B992
:101D4000236807F0FE071F610A9A33461A492046A6
:101D5000FFF74EFF30B1236C042B18D0032004B0E2
:101D6000BDE8F081236803905A690A9903929B6940
:101D7000324603932046039BFFF7A8FF48B1236C2C
:101D8000042BEBD12268136843F400731360012025
:101D9000E5E7B8F1010F236802D1EDB21D61DEE77E
:101DA0002A0A1A610A9932462046FFF78FFF002857
:101DB000E5D12368F1E700BF020001002DE9FF41F2
:101DC0009846036816461A680B9D42F480621A60B2
:101DD0001A680F4642F480721A604FF001110095A4
:101DE0000A9B00220446FFF743FF80B92368FFB235
:101DF00007F0FE021A612D492B460A9A2046FFF78A
:101E0000F7FE40B1236C042B01D1012000E0032038
:101E100004B0BDE8F081236803905A690A990392DF
:101E20009B692A4603932046039BFFF74FFF40B16F
:101E3000236C042BEBD12268136843F40073136006
:101E4000E3E7B8F1010F236824D1F6B21E612A46F8
:101E50000A992046FFF73AFF02460028E8D1216898
:101E600020460B6843F480730B6000950A9B4FF08B
:101E70000111FFF7FDFE0028C9D1236847F00107D3
:101E80001F610A9A2B4609492046FFF7B1FE002838
:101E9000B8D1BDE7320A1A610A992A462046FFF7EF
:101EA00015FF0028C4D12368CFE700BF020001005E
:101EB00070B504460D4616462068436913F040038A
:101EC00001D0002070BD4269D2060BD56FF0100220
:101ED00042612022236484F83C302363012084F88B
:101EE0003D2070BD5DB9236C032043F020032364C3
:101EF000202384F83D30002384F83C3070BDFFF788
:101F000039F9801B8542D7D2EDE770B504460D46FE
:101F1000164623685B695B0701D5002070BD20462B
:101F2000FFF751FEA8B96A1CF3D065B9236C2022D3
:101F300043F02003236400230320236384F83C3010
:101F400084F83D2070BDFFF715F9801B8542E0D273
:101F5000ECE7012070BD000038B5044608B9012047
:101F600038BD90F83D3003F0FF021BB980F83C20EB
:101F700006F05CF92423226884F83D30136823F0CE
:101F80000103136000F0ECFE63682F4A934230D8DF
:101F90002E4A9042E3D92E4A2168B0FBF2F24A6001
:101FA00001320A62284A0138934232D85B00B0FB02
:101FB000F3F0431CC3F30B03042B38BF0423CB61A2
:101FC000226AE369002013430B60E268236913432C
:101FD0008B60A26963691343CB600B6843F0010314
:101FE0000B602023206484F83D30206384F83E0099
:101FF00038BD184A9042B2D9154D4FF49672B0FBD5
:10200000F5F521686A434D604FF47A75B2FBF5F23D
:10201000C6E7A26852B903EB4303B0FBF3F0431CDD
:10202000C3F30B036BB143F40043C8E719225343D6
:10203000B0FBF3F0431CC3F30B0313B143F4404371
:10204000BDE70123BBE700BFA08601007F841E001F
:1020500040420F00FF083D002DE9FF4104461F46A6
:102060000D469046FFF786F894F83D300646202B43
:1020700004D00225284604B0BDE8F0810090192361
:1020800001225D492046FFF7F3FD0028F1D194F8C5
:102090003C30012BEDD0012384F83C3023681A68D2
:1020A000D2075EBF1A6842F001021A601A6822F471
:1020B00000621A60212284F83D20102284F83E201C
:1020C00000222264A2F580326785E262628DC4F844
:1020D00024802285E26A042A04D0012A02D012F563
:1020E000803F04D11A6842F480721A6002E0226BC9
:1020F000122AF7D000960A9B00224FF001112046C9
:10210000FFF7B6FD28BB23692268B3F5804F12D1D3
:1021100005F0FE05156133460A9A38492046FFF757
:1021200067FD0546A0B9236803905A6903929B692D
:102130000393039B50E0EB1103F0060343F0F0031D
:1021400013612F4933460A9A2046FFF751FD48B1E3
:10215000236C236C042B4FF0000307D184F83C3030
:10216000012587E72368EDB21D61D4E784F83C3090
:1021700003257FE732460A992046FFF7A7FD40B1C5
:10218000236C042BF4D12268136843F400731360AA
:10219000E6E7616A20684B1C63620B78228D03615D
:1021A000638D013B9BB263854769531E9BB27F07DA
:1021B00023850AD54BB18B1C63624B78023A0361CD
:1021C000638D2285013B9BB2638532460A99204686
:1021D000FFF79BFE0028D3D1238D002BCAD12168A5
:1021E0000A6842F400720A60202284F83C3084F8C5
:1021F0003D2084F83E303DE702001000020001005F
:10220000080001002DE9F043044689B098460D46C8
:102210009146109FFEF7AEFF94F83D300646202B06
:1022200004D00225284609B0BDE8F08300901923A8
:102230000122A2492046FFF71BFD0028F1D194F8A6
:102240003C30012BEDD0012384F83C3023681A6820
:10225000D2075EBF1A6842F001021A601A6822F4BF
:1022600000621A60222284F83D20102284F83E2069
:1022700000222264A2F58032A4F82A80E262628DF4
:10228000C4F824902285E26A1968042A41F4806126
:10229000196004D0012A02D012F5803F04D11A68D7
:1022A00042F480721A6002E0226B112AF7D0009685
:1022B0003B4600224FF001112046FFF7D9FC0028D1
:1022C0004DD12369B3F5804F236839D145F001051D
:1022D000EDB21D6133463A4679492046FFF788FC46
:1022E000054600283AD1228D2368002A69D0012AA8
:1022F0007AD11A6822F480621A6072B62368049553
:102300005A6904929A690492049A1A6842F4007213
:102310001A6062B6DFF8B081238D002B5BD0032BEF
:1023200000F2D480012B7BD1324639462046FFF79C
:10233000BFFD002800F09380236C202B16D13EE0D7
:102340004FEAE51808F0060848F0F0021A615D4906
:1023500033463A462046FFF74BFC48B1236C236CCA
:10236000042B4FF0000328D184F83C30012559E7B5
:102370002368EDB21D613A46334651492046FFF7C6
:1023800037FC02460028E9D12368079059692046A6
:102390000791996907910799196841F4807119604B
:1023A00000963B464FF00111FFF762FC0028D6D1A2
:1023B000226848F0F10313618CE784F83C30032570
:1023C00030E703955A6903929A690392039A1A684F
:1023D00042F400721A60202384F83D30002384F810
:1023E0003E3084F83C301DE7022A1A680ED142F4D0
:1023F00000621A6072B6236805955A6905929A6957
:102400000592059A1A6822F4806281E742F480629C
:102410001A6006955A6906929B690693069B79E7AE
:10242000022B00963B464FF000024146204624D145
:10243000FFF71EFC0028C2D172B623681A6842F466
:1024400000721A60626A1B69511C61621370238DED
:10245000013B2385638D013B9BB2638562B6636A52
:102460005A1C6262226812691A70238D013B23850F
:10247000638D013B9BB263854EE7FFF7F9FB024694
:1024800000289CD121680B6823F480630B6072B62E
:10249000636A2046591C6162216809691970238D9D
:1024A0000096013B2385638D4146013B9BB26385CA
:1024B0003B46FFF7DDFB0028BFD080E7020010009D
:1024C0000200010008000100040001003246394604
:1024D0002046FFF7EDFC00287FF42EAF636A5A1CFC
:1024E0006262226812691A70238D2268013B23857B
:1024F000638D013B9BB2638553695B077FF50CAF2E
:10250000636A591C6162AEE72DE9F34704469A46B7
:10251000884691460C9EFEF72DFE94F83D30054608
:10252000202B03D0022002B0BDE8F08700901923D1
:1025300001223E492046FFF79BFB0028F2D194F888
:102540003C30012BEED0012384F83C302368002777
:102550001A684146D20758BF1A6820465CBF42F04D
:1025600001021A601A6822F400621A60212384F8BA
:102570003D30402384F83E300A9B27646362BDF8F7
:102580002C30019563852A4B0096E362638D4A46A1
:1025900023855346FFF7C0FB00282AD0236C84F81C
:1025A0003C70042B07D10120BDE7FFF78FFB20B162
:1025B000236C042B34D00320B5E7616A27684B1CD9
:1025C00063620B78228D3B61638D501E013B9BB291
:1025D00063857B6980B25B0720850AD548B18B1C77
:1025E00063624B78023A3B61638D2285013B9BB26B
:1025F0006385238D2A4631462046002BD5D1FFF72F
:1026000084FC0028D4D12268136843F4007313605B
:10261000202384F83C0084F83D3084F83E0082E7B3
:102620002268136843F400731360BCE702001000D3
:102630000000FFFF2DE9F047044686B09A460D469C
:102640009146109FFEF796FD94F83D300646202BEC
:1026500004D00225284606B0BDE8F0870090192373
:10266000012281492046FFF703FB0028F1D194F8AD
:102670003C30012BEDD0012384F83C3023684FF02F
:1026800000081A682946D20758BF1A6820465CBF5E
:1026900042F001021A601A6822F400621A602223D2
:1026A00084F83D30402384F83E300E9BC4F84080CF
:1026B0006362BDF83C30019663856C4B0097E36222
:1026C000638D4A4623855346FFF778FB054630B1B4
:1026D000236C84F83C80042B3DD10125BAE7228D80
:1026E000236892B902905A6902929A690292029AF8
:1026F0001A6842F400721A60202384F83D300023E7
:1027000084F83E3084F83C30A4E7012A25D11A68C9
:1027100022F480621A6072B6236803905A690392A9
:102720009A690392039A1A6842F400721A6062B6B8
:10273000DFF83C81238D002BDED0032B77D8012BD3
:1027400027D1324639462046FFF7B2FB00283FD05A
:10275000236C202BC1D103257CE7022A1A680ED1F5
:1027600042F400621A6072B6236804905A690492B7
:102770009A690492049A1A6822F48062D6E742F4B5
:1027800080621A6005905A6905929B690593059BC2
:10279000CEE7022B00963B464FF000024146204612
:1027A00024D1FFF765FA0028D5D172B623681A68DC
:1027B00042F400721A60626A1B69511C61621370F4
:1027C000238D013B2385638D013B9BB2638562B6FC
:1027D000636A5A1C6262226812691A70238D013B77
:1027E0002385638D013B9BB26385A3E7FFF740FA26
:1027F00002460028AFD121680B6823F480630B6088
:1028000072B6636A2046591C6162216809691970B1
:10281000238D0096013B2385638D4146013B9BB28E
:1028200063853B46FFF724FA0028BFD093E7324682
:1028300039462046FFF73CFB002889D1636A5A1CC1
:102840006262226812691A70238D2268013B238517
:10285000638D013B9BB2638553695B077FF56AAF6C
:10286000636A591C6162B7E7020010000000FFFFB5
:102870000400010090F83D007047000003682DE956
:10288000F341DB07054610D42B689F075ED42B6805
:10289000190700F195802B685A0700F1BF80EA699B
:1028A000002A40F02D81002014E0904C636803F072
:1028B0000C03042B07D0636803F00C03082B0CD126
:1028C0006368DE0309D523689C03DDD56B68002BA4
:1028D000DAD1012002B0BDE8F0816B68B3F5803F2A
:1028E00010D1236843F480332360FEF743FC06468F
:1028F00023689803C8D4FEF73DFC801B6428F7D9F1
:102900000320E7E79BB9236823F48033236023681F
:1029100023F480232360FEF72DFC064623689903E9
:10292000B2D5FEF727FC801B6428F7D9E8E7B3F59A
:10293000A02F236803D143F480232360D1E723F43D
:1029400080332360236823F48023CDE7674C6368DA
:1029500013F00C0F07D0636803F00C03082B10D1A1
:102960006368DA030DD423689B0702D52B69012B1A
:10297000AFD123686A6923F0F80343EAC2032360F6
:1029800085E72A695A4B6AB101221A60FEF7F2FB09
:10299000064623689F07ECD4FEF7ECFB801B022859
:1029A000F7D9ADE71A60FEF7E5FB064623689807FE
:1029B0007FF56DAFFEF7DEFB801B0228F6D99FE79F
:1029C000AA694A4C4B4BDAB101221A60FEF7D2FBDE
:1029D0000646636A9B070DD54FF4FA52464B1B68B7
:1029E000B3FBF2F3019300BF019B5A1E0192002B2F
:1029F000F9D150E7FEF7BEFB801B0228E9D97FE73B
:102A00001A60FEF7B7FB0646636A9F077FF543AF80
:102A1000FEF7B0FB801B0228F6D971E7334CE3695F
:102A2000D80024D40127E36943F08053E361E369CC
:102A300003F080530093009B304E3368D90518D5BE
:102A4000EB68012B26D1236A43F001032362FEF7D2
:102A500091FB41F288368046236A9B073FD5002FC1
:102A60003FF41DAFE36923F08053E36117E70027CC
:102A7000E2E7336843F480733360FEF77BFB804604
:102A80003368DA05DCD4FEF775FBA0EB0800642898
:102A9000F6D935E7ABB9236A41F2883823F0010350
:102AA0002362236A23F004032362FEF763FB0646D6
:102AB000236A9807D3D5FEF75DFB801B4045F7D905
:102AC0001EE7052B236A03D143F004032362BAE710
:102AD00023F001032362236A23F00403B6E7FEF721
:102AE00049FBA0EB0800B042B6D909E7001002404C
:102AF0000000424280044242100400200070004066
:102B0000224C636803F00C03082B3FF4E2AE002371
:102B10001F4E022A33602BD1FEF72CFB0746236899
:102B200099011FD42B6AB3F5803F05D16268A9686B
:102B300022F400320A436260696A62680B4322F43D
:102B400074121343636001233360FEF713FB0546E1
:102B500023689A013FF5A7AEFEF70CFB401B022845
:102B6000F6D9CDE6FEF706FBC01B0228D7D9C7E68B
:102B7000FEF700FB054623689B017FF594AEFEF748
:102B8000F9FA401B0228F6D9BAE600BF001002404D
:102B90006000424230B5194B87B002AC03F110051A
:102BA000224618685968083303C2AB421446F7D16D
:102BB00001238DF80430022311498DF805304B684C
:102BC00003F00C02082A17D1C3F3834206A802447B
:102BD000DB0312F8102C0CD54B680A48C3F34043B2
:102BE000504306AA134413F8143CB0FBF3F007B0AB
:102BF00030BD05485043FAE70248F8E788B20008BC
:102C00000010024000127A0000093D004D4A2DE9F3
:102C1000F0411368054603F007038B420E4628D3A4
:102C20002A68910732D4D20738D4464A136803F091
:102C300007039E4273D32A68434C12F0040F79D1E4
:102C4000130706D563682A6923F4605343EAC20375
:102C50006360FFF79FFF63683C4AC3F30313D35CD1
:102C6000D8403B4B18600020FEF742FA0020BDE838
:102C7000F081136823F007030B431360136803F01C
:102C800007039942CCD00120BDE8F0812E49A86805
:102C90004B6823F0F00303434B60C4E76A682A4C97
:102CA000012A23681CD113F4003FECD0636841F281
:102CB000883823F0030313436360FEF75BFA6B6805
:102CC0000746012B14D1636803F00C03042BACD02E
:102CD000FEF750FAC01B4045F5D90320BDE8F0814E
:102CE000022A02D113F0007FDFE713F0020FDCE7C6
:102CF000022B0FD1636803F00C03082B95D0FEF76D
:102D000039FAC01B4045F5D9E7E7FEF733FAC01B97
:102D10004045E2D8636813F00C0FF6D185E71368DD
:102D200023F0070333431360136803F007039E4245
:102D3000A9D180E76368E96823F4E0630B4363602B
:102D40007EE700BF002002400010024083BA000866
:102D500010040020014B1868704700BF10040020C9
:102D6000044B054A5B68C3F30223D35C034A106833
:102D7000D84070470010024093BA000810040020A9
:102D8000044B054A5B68C3F3C223D35C034A106853
:102D9000D84070470010024093BA00081004002089
:102DA00003682DE9F341D907054620D5354CE36981
:102DB000DA0032D40127E36943F08053E361E36929
:102DC00003F080530193019B2F4E3368DB0526D51A
:102DD000236A13F4407336D1236A6A6823F440737C
:102DE000134323621FB1E36923F08053E361286832
:102DF000830706D5234AA968536823F440430B434D
:102E0000536010F010001BD01E4AE9685368002080
:102E100023F480030B43536012E00027D4E73368A8
:102E200043F480733360FEF7A5F980463368D80514
:102E3000CED4FEF79FF9A0EB08006428F6D9032052
:102E400002B0BDE8F0816A6802F440729342C3D0D8
:102E500001200E4A236A1060002023F440711060A4
:102E60002162D907B8D5FEF785F941F288380646C0
:102E7000236A9A07B0D4FEF77DF9801B4045F7D945
:102E8000DDE700BF001002400070004040044242F5
:102E900070B50446354B86B002AD03F110062A46E4
:102EA00018685968083303C2B3421546F7D10123A5
:102EB0008DF8043002239C428DF8053047D0102C49
:102EC00017D0012C4FD140F20231294A136A194020
:102ED000B1F5817F44D003F44073B3F5007F2DD169
:102EE00049F64040536A13F0020F08BF002006B0B5
:102EF00070BD1F4B5968186810F08070F7D0C1F38F
:102F0000834206A8024412F8100CCA0341BF5A6853
:102F100006A9C2F34042521844BF12F8141C154AC5
:102F20005B684CBFB2FBF1F2134A5B0202FB00F09C
:102F3000DDD403234000B0FBF3F0D8E7B3F5407FC6
:102F400011D113684FF2244013F4003FCDE7FFF78F
:102F500017FF074B5B68C3F3813301335B00EAE77C
:102F60004FF40040C3E70020C1E700BF98B200085B
:102F70000010024000127A0000093D00036A70B59B
:102F800023F001030362036A446882690D6822F03A
:102F900073022A438D6823F002032B430A4DA84293
:102FA0000BD1CD6823F008032B438E694D6924F4BF
:102FB0004074354323F004032C43446082614A6823
:102FC0004263036270BD00BF002C0140036A70B50C
:102FD00023F480730362036A4468C2690D6822F0B7
:102FE00073022A438D6823F4007343EA05230B4DD3
:102FF000A8420DD1CD6823F4006343EA05238E690E
:103000004D6924F44054354323F4806344EA0514A5
:103010004460C2614A68C263036270BD002C014013
:10302000036A30B523F480530362036A4468C269BB
:103030000D6822F4E64242EA05228D6823F400532B
:1030400043EA0533064DA84202BF4D6924F480448B
:1030500044EA85144460C2614A680264036230BD78
:10306000002C01407047704790F83C3070B5012B40
:103070004FF002031CD0012280F83D30036880F835
:103080003C209A6822F47F4222F077029A600A6814
:10309000402A79D019D8102A00F093800AD8002A43
:1030A00000F08980012380F83D30002380F83C3017
:1030B000184670BD202A00F08A80302AF2D19A6822
:1030C00022F0700242F0370236E0702A36D01BD868
:1030D000502A42D0602AE5D11C6A4D6824F01004C1
:1030E000CE681C6299691A6A21F4704122F0A0022C
:1030F00042EA051241EA063199611A629A6822F0A1
:10310000700242F0670217E0B2F5805F11D0B2F5AD
:10311000005FC7D18A684D689C68C9682A4324F457
:103120007F4442EA012222439A609A6842F4804234
:1031300002E09A6822F007029A60B3E78A684D6855
:103140009C68C9682A4324F47F4442EA012222434E
:103150009A609A6842F07702EEE74C68CE68196A86
:103160001D6A21F00A0125F001051D629A692143BB
:1031700022F0F00242EA06129A6119629A6822F07D
:10318000700242F05702D7E74C68CE68196A1D6A90
:1031900021F00A0125F001051D629A69214322F000
:1031A000F00242EA06129A6119629A6822F07002ED
:1031B00042F04702C0E79A6822F0700242F007022C
:1031C000BAE79A6822F0700242F01702B4E79A68F0
:1031D00022F0700242F02702AEE770477047704756
:1031E000036810B51A69044691070ED5DA6892078C
:1031F0000BD56FF002021A6101229B6902779B07CF
:1032000077D002F0BDFA0023237723681A695007AC
:1032100010D5DA6851070DD56FF004021A61022249
:103220009B69227713F4407F204668D002F0A8FA09
:103230000023237723681A6912070FD5DA6810076D
:103240000CD56FF008021A610422DB692277990716
:1032500020465AD002F094FA0023237723681A6993
:10326000D20610D5DA68D0060DD56FF010021A61BB
:103270000822DB69227713F4407F20464BD002F00E
:103280007FFA0023237723681A69D10708D5DA6803
:10329000D20705D56FF0010220461A6104F074FFD1
:1032A00023681A69100608D5DA68110605D56FF08B
:1032B000800220461A6100F06CFA23681A695206EF
:1032C00008D5DA68500605D56FF0400220461A612D
:1032D000FFF785FF23681A69910622D5DA689206FE
:1032E0001FD56FF020022046BDE810401A6100F0A3
:1032F0004FBAFFF772FF2046FFF770FF83E7FFF733
:103300006CFF2046FFF76AFF92E7FFF766FF204653
:10331000FFF764FFA0E7FFF760FF2046FFF75EFFBF
:10332000AFE710BD1A4A036890420AD0B0F1804F4F
:1033300007D0A2F59432904203D002F58062904209
:1033400015D14A6823F070031343114A90420AD002
:10335000B0F1804F07D0A2F59432904203D002F52D
:103360008062904203D1CA6823F4407313434A69D0
:1033700023F08003134303608B68C3620B6883628E
:10338000034B984204BF0B690363012343617047F9
:10339000002C014010B50446A0B190F83D3003F078
:1033A000FF021BB980F83C2004F072FF0223206862
:1033B00084F83D30211DFFF7B5FF0123002084F87C
:1033C0003D3010BD012010BD10B50446A0B190F8ED
:1033D0003D3003F0FF021BB980F83C20FFF742FEAE
:1033E0000223206884F83D30211DFFF79BFF012355
:1033F000002084F83D3010BD012010BD10B50446FA
:10340000A0B190F83D3003F0FF021BB980F83C20DA
:10341000FFF729FE0223206884F83D30211DFFF7C5
:1034200081FF0123002084F83D3010BD012010BD34
:10343000036A70B523F010030362036A446882696B
:103440000D6822F4E64242EA05228D6823F020034B
:1034500043EA05130B4DA8420DD1CD6823F080033C
:1034600043EA05138E694D6924F44064354323F023
:10347000400344EA8504446082614A6882630362CF
:1034800070BD00BF002C014038B590F83C300446B8
:10349000012B4FF0020025D0012384F83D0084F871
:1034A0003C300C2A18D8DFE802F0071717171E1750
:1034B00017172F17171740002068FFF75FFD2368C5
:1034C00009699A6942F008029A619A6922F0040235
:1034D0009A619A690A439A610123002084F83D3079
:1034E00084F83C0038BD2068FFF7A2FF2368096913
:1034F0009A6942F400629A619A6922F480629A6140
:103500009A6942EA0122E6E72068FFF75FFD236837
:103510000969DA6942F00802DA61DA6922F0040224
:10352000DA61DA690A43DA61D6E72068FFF778FDE5
:1035300023680969DA6942F40062DA61DA6922F41F
:103540008062DA61DA6942EA0122ECE770B5046A66
:10355000124E24F001040462B0428469056A0AD064
:10356000B0F1804F07D0A6F59436B04203D006F5EF
:103570008066B0420FD124F0030422431B0122F0E5
:10358000F002DBB225F00A0501F00A011A432943D3
:103590008261016270BD44F00102EFE7002C01403E
:1035A000F8B590F83C300446012B0D464FF0020070
:1035B00019D0012384F83D0084F83C30A2B9CB68CF
:1035C000206806C9FFF7C2FF2368A9689A6922F03C
:1035D0000C029A619A690A439A610123002084F8D7
:1035E0003D3084F83C00F8BD042A8E68236882C907
:1035F000E8681FD11A6A000322F010021A629A6961
:103600001D6A22F4407242EA072280B222F470421C
:103610000901024301F0A00125F0A00001439A61D5
:1036200019629A6922F440629A619A6942EA06260E
:103630009E61D2E7082A1A6A1CD122F480721A62AB
:10364000DA69000122F003021D6A3A43C0B222F097
:10365000F0020902024301F4206125F420600143D5
:10366000DA611962DA6922F00C02DA61DA6916436A
:10367000DE61B2E722F480521A62DA69000322F4B2
:1036800040721D6A42EA072222F4704280B20903A6
:10369000104301F4005125F400521143D86119621E
:1036A000DA6922F44062DA61DA6942EA0626DFE783
:1036B00010B50124036A8C4023EA04030362036A01
:1036C0008A401A43026210BD10B504460122006808
:1036D000FFF7EEFF2368064A0020934202BF5A6CB0
:1036E00042F400425A641A6842F001021A6010BDA6
:1036F000002C014010B504460C290DD8DFE801F07C
:10370000070C0C0C170C0C0C1C0C0C0C2100026888
:10371000D36843F00203D36020680122FFF7C8FF9B
:1037200022680020136843F00103136010BD026893
:10373000D36843F00403EEE70268D36843F008035C
:10374000E9E70268D36843F01003E4E790F83C30FF
:1037500010B5012B4FF0020318D080F83D300368FC
:103760000C685A68496822F070025A605A6822430D
:103770005A609A6822F080029A609A680A439A60B6
:10378000012380F83D30002380F83C30184610BDFE
:10379000704770470368DA6822F49072DA605A69F9
:1037A00022F001025A61202380F83A30704700006D
:1037B0002DE9F0470568C2682B69016923F440537D
:1037C00013432B618368EA680B43416922F4B052CA
:1037D00022F00C020B431343EB606B69826923F404
:1037E000407313436B61404B81469D424FF0190477
:1037F00046D1FFF7C5FA04FB00F3D9F804604FF097
:103800006408B600B3FBF6F3B3FBF8F31E01FFF751
:10381000B7FA6043D9F804309B00B0FBF3F7FFF729
:10382000AFFA6043D9F804309B00B0FBF3F3B3FB6D
:10383000F8F308FB13731B013233B3FBF8F303F007
:10384000F007FFF79DFA6043D9F804209200B0FB1F
:10385000F2FAFFF795FA6043D9F804309B00B0FB09
:10386000F3F3B3FBF8F308FB13A31B013233B3FBF1
:10387000F8F303F00F033B433344AB60BDE8F0873C
:10388000FFF76EFA04FB00F3D9F804604FF0640808
:10389000B600B3FBF6F3B3FBF8F31E01FFF760FAD3
:1038A0006043D9F804309B00B0FBF3F7FFF758FAF8
:1038B0006043D9F804309B00B0FBF3F3B3FBF8F39B
:1038C00008FB13731B013233B3FBF8F303F0F0076B
:1038D000FFF746FA6043D9F804209200B0FBF2FAF1
:1038E000FFF73EFAB7E700BF00380140F8B50446DD
:1038F0000E4617461D4621680B6836EA030301D1C0
:103900000020F8BD6B1CF7D095B923680320DA6856
:1039100022F4D072DA605A6922F001025A6120233F
:1039200084F8393084F83A30002384F83830F8BD10
:10393000FDF720FCC01B8542DDD2E6E710B504464A
:1039400040B390F8393003F0FF021BB980F83820FB
:1039500004F044FD2423226884F83930D3682046DB
:1039600023F40053D360FFF723FF236800201A6974
:1039700022F490421A615A6922F02A025A61DA68E6
:1039800042F40052DA602023E06384F8393084F88E
:103990003A3010BD012010BD2DE9F0411F4690F8CE
:1039A00039300446202B0D4690464ED1002949D08F
:1039B000002A47D090F83830012B46D0012380F8F8
:1039C00038300023C363212380F83930FDF7D2FB60
:1039D0000646A4F82480A4F82680E38C9BB26BB939
:1039E0003B46324640212046FFF780FFA8B92023FE
:1039F00084F8380084F83930BDE8F081E38C324631
:103A0000013B9BB2E384A3688021B3F5805F20462D
:103A10003B460ED1FFF76AFF10B10320BDE8F081ED
:103A20002B882268C3F308035360236943B9023526
:103A3000D3E7FFF75BFF0028EFD123682A785A60AD
:103A40000135CAE70120BDE8F0810220BDE8F08120
:103A500038B50446134694F83920202A2AD139B3C0
:103A600033B394F83820012A24D00122002584F8A9
:103A700038202122E384206BE56384F839200E4A44
:103A8000A384216282620D4A4563C2620C4A0263CA
:103A900022680432FDF794FE6FF040022368284646
:103AA0001A605A6984F8385042F080025A6138BD71
:103AB000012038BD022038BD573B0008853B000877
:103AC000513C0008134690F83A2073B5202A054669
:103AD00038D1002934D0002B32D090F83820012A78
:103AE00030D00122002480F8382022228162838590
:103AF000C46380F83A20406B134A2E688262134AEE
:103B00004463C262124A02630A46311DFDF758FE41
:103B100020462B6801941A6801925A6885F838404B
:103B20000192019ADA6842F48072DA605A6942F0CE
:103B300001025A615A6942F040025A6102B070BDF6
:103B40000120FBE70220F9E78F3B0008453C000815
:103B5000513C0008704708B50368426A1B6813F0BF
:103B600020030AD1D38413685A6922F080025A6173
:103B7000DA6842F04002DA6008BD1046FFF7EAFF5B
:103B800008BD704708B5406AFFF7FBFF08BD08B5E0
:103B90000368426A1B6813F0200310D1D3851368B1
:103BA000D96821F48071D960596921F00101596106
:103BB000596921F040015961202382F83A301046BA
:103BC00003F0ACFB08BD90F83A3010B5222B36D18B
:103BD00083680169B3F5805F0268836A23D1526804
:103BE000E9B9C2F3080223F8022B8362C48D013CB9
:103BF000A4B2C4858CB90368DA6822F02002DA60C6
:103C0000DA6822F48072DA605A6922F001025A619D
:103C1000202380F83A3003F081FB002010BDD2B29F
:103C200023F8012BE1E721B9591C526881621A700F
:103C3000DCE75268591C816202F07F02F7E702203C
:103C400010BD704708B5406AFFF7FBFF08BD70471D
:103C5000416A08B50B685A6991F8390021280AD1E0
:103C6000120608D50022CA84DA6822F0C002DA609F
:103C7000202281F839205B6991F83A20222A06D166
:103C80005B0604D500230846CB85FFF783FDCB6B8D
:103C9000084643F01003CB63FFF7D9FF08BD0000CF
:103CA000036870B51A6804461607D9685D6907D1BC
:103CB00096065AD58D0658D5BDE87040FFF783BFEC
:103CC00015F0010502D111F4907F4ED0D30705D530
:103CD000CE0542BFE36B43F00103E363500704D515
:103CE0001DB1E36B43F00203E363930704D51DB1F9
:103CF000E36B43F00403E363160704D51DB1E36BE4
:103D000043F00803E363E36B002B66D0950604D50C
:103D1000880602D52046FFF756FF236820465D69D6
:103D2000E26B110702D415F040051AD0FFF732FDFF
:103D300023685A69520610D55A69606B22F0400216
:103D40005A6150B1254B4363FDF778FD002844D0FC
:103D5000606BBDE87040436B18472046FFF777FF64
:103D600070BDFFF774FFE56370BD160627D50D061D
:103D700025D594F83920212A2FD1A268B2F5805F89
:103D8000226A17D11188C1F308015960216979B9F4
:103D900002322262E28C013A92B2E284EAB9DA6833
:103DA00022F08002DA60DA6842F04002DA6070BD28
:103DB0000132EEE7511C216212785A60EAE75006A0
:103DC0000BD54A0609D5DA68204622F04002DA60AF
:103DD000202384F83930FFF7BDFE70BDE13D0008B7
:103DE00008B50023406AC385C384FFF730FF08BDD0
:103DF0001FB54FF47A740A449BB201930092029467
:103E000082B20223A0210448FEF77EFB0A2004B000
:103E1000BDE81040FDF7B4B9D00E00202DE9F04107
:103E20000646884615460027002D01DCBDE8F081D6
:103E30001E2D2B46A8BF1E2306F03F04C4F14004EC
:103E40009C42A8BF1C463A46304623464146FFF7EF
:103E5000CFFF2D1B27442644E6E707B502AB43F806
:103E6000041D04221946FFF7D9FF03B05DF804FBD7
:103E70002DE9F04198B004AD80460E46174619462C
:103E8000502228461C4604F03CFC4FF47A730293FF
:103E9000A3B20193009502231FFA88F2A0210748DC
:103EA000FEF7C8FB00233E44A34202DB18B0BDE886
:103EB000F081EA5CF2540133F6E700BFD00E002037
:103EC0002DE9F0410746884614460026002C01DC07
:103ED000BDE8F081202C2546A8BF20253246384673
:103EE0002B464146FFF7C4FF2F442E44641BEDE7E9
:103EF00010B5034C04222146FFF7E2FF206810BDF5
:103F00006007002038B50024094D2046FFF7F0FF78
:103F100045F8040F04F10C00FFF7EAFF686204F1B2
:103F20001800FFF7E5FF04340C2CA864EDD138BD70
:103F3000740800202DE9F04F174692B2C2F1010536
:103F4000C2EBC2325FFA81F9FEB25200DCB285B038
:103F50005FFA80F812B209EB06010292C9B222465A
:103F6000404603F075FDA9EB06012246C9B2404662
:103F700003F06EFD08EB060022464946C0B203F08E
:103F800067FDA8EB060022464946C0B203F060FD7B
:103F900000232DB2BB4202DB05B0BDE8F08F002D3F
:103FA00008DB029A013F023292B211B215443FB2CD
:103FB00002912DB201339BB2019305EB43059DF8AD
:103FC0000430FEB2009309EB060B4344DBB25FFA08
:103FD0008BFB594618462246039303F039FD009B9C
:103FE0005946A8EB030A5FFA8AFA5046224603F0C4
:103FF0002FFDA9EB060B039B5FFA8BFB1846594676
:10400000224603F025FD59465046224603F020FD86
:10401000009B08EB060A09EB030B5FFA8BFB5FFAC8
:104020008AFAA8EB0606594622465046F6B203F035
:104030000FFD59462246304603F00AFD009B2246FA
:10404000A9EB030B5FFA8BFB5946504603F000FDCA
:10405000013522465946304603F0FAFC2DB2BDF92F
:10406000043097E72DE9F74F16465F1AA6EB0008D4
:10407000002FB8BF7F42B8F1000FB8BFC8F10008E9
:10408000474504460D461A4604DD33460C4616469F
:1040900005461A46B44205DD2B4615461A46234608
:1040A00034461E46A2EB050A5346002BB8BF5B42BE
:1040B00001930223A6EB04091FFA89F90FFA89F18B
:1040C00091FBF3FA9542B4BF01234FF0FF339DF803
:1040D00030B00093B44202DD03B0BDE8F08F474535
:1040E000E0B25FFA85FEC8BF01465A46CCBF7046B3
:1040F000714603F0ADFC019BAAEB03039AB20FFAE1
:1041000082FABAF1000F06DA009B1D4409EB0203A4
:104110002DB20FFA83FA013424B2DBE707B5013A76
:104120000A44009313B20246FFF79CFF03B05DF808
:1041300004FB2DE9F04F89B00593BDF948301446D2
:10414000069393B2C3F10107C3EBC3335B001BB209
:10415000039300230193059BBDF84C9003F00103EA
:1041600004913FB207931FFA80FABDF90430A342CD
:1041700002DB09B0BDE8F08F002F08DB039B013C98
:1041800002339BB21AB21F4424B203923FB2BDF86D
:1041900004804FEA480293B2029303331F44079B03
:1041A0003FB20BB3BDF818B0BDF81060A5B20BF16B
:1041B00001020AF1010002EB4502711B40444B462B
:1041C00012B209B200B2FFF7A9FF029B0BF1030282
:1041D000711E1A44A1EB08010AEB05004B4612B20E
:1041E00009B200B2FFF79AFF059B9B0723D5BDF8E4
:1041F00018B0BDF81050A6B20BF101020AF1FF3061
:1042000002EB4602A91BA0EB08004B4612B209B212
:1042100000B2FFF783FF029B0BF1030213441A461F
:10422000691EA1EB0801AAEB06004B4612B209B2C7
:1042300000B2FFF773FF019B0133019395E7F7B5D8
:104240000C4691B215464A000132611A12B209B207
:104250001F460646FFF762FF0023019700932A4698
:10426000032321463046FFF764FF03B0F0BD2DE97C
:10427000F0410E461F460446BDF818808518AC4232
:1042800001DBBDE8F081204643463A463146013421
:10429000FFF744FF24B2F2E72DE9F04F0C4685B05A
:1042A000BDF938A085B21FFA8AF74FEA4709BDF871
:1042B0003CB01FFA82F8EE191FFA89F936B2A8EB62
:1042C00009023046CDF800B012B20393FFF7CFFFDA
:1042D000039B08F1FF30013B3C44A3EB0909284450
:1042E00024B20FFA89F9C01B524621468DE8000A14
:1042F000012300B2FFF71DFF02235246214630463C
:10430000CDF83CB0CDF8389005B0BDE8F04FFFF7E0
:1043100010BF70472DE9F047012692461C4686B033
:10432000164F0DF117058046894633460A46029618
:104330000146019600953846FEF77CF9AAEB040386
:104340009A1906FA04F49DF83830013C94409340E1
:104350009DF81720DBB222EA04021C400A23144312
:1043600002938DE8600033464A46414638468DF850
:104370001740FEF7C9F806B0BDE8F087D00E002060
:104380001FB501240294BDF818408DE818001346AB
:104390000A4601460248FEF74DF904B010BD00BFC1
:1043A000D00E00202DE9FF471E4C0546204616463C
:1043B0008DF80F10FEF75EFA202811D14FF47A73B2
:1043C00029460093204633460DF10F02FDF744FEC7
:1043D0000546276CDFF85880134CDFF8589015B964
:1043E00004B0BDE8F0873B462A464146204604F02B
:1043F00091F92046FBF7ACFE4FF47A7382B2214666
:104400004846FFF7C9FA4FF0020A084E3378002BEE
:10441000E5D086F800A000F0C5FC0420FCF7B0FE53
:10442000F4E700BFD00E0020A40D0020A010002053
:10443000C4B20008E81000202DE9F3471D4C0546E2
:1044400020460E461746FEF715FA202810D14FF4E5
:104450007A732946009320463B463246FDF7D2FE4A
:104460000546276CDFF85880134CDFF8589015B9D3
:1044700002B0BDE8F0873B462A464146204604F09C
:1044800049F92046FBF764FE4FF47A7382B2214665
:104490004846FFF781FA4FF0030A084E3378002BA5
:1044A000E5D086F800A000F07DFC0420FCF768FE53
:1044B000F4E700BFD00E0020A40D0020A0100020C3
:1044C000A8B20008E810002070B506464FF07C51F5
:1044D000FCF70CFC114C0546A4EB66042146FCF7E6
:1044E00005FC2146FCF702FC01464FF07F50FCF72B
:1044F000F3FA2146FCF7FAFB044601462846FCF78E
:10450000F5FB2146FCF7F2FB01464FF07F50FCF72C
:10451000E3FA2146FCF7EAFB70BD00BFDF59375FC5
:104520002DE9F74F86690446C56931463046FCF7E8
:10453000DDFB01464FF07C50FCF7CEFA29460746DA
:104540002846FCF7D3FB01463846FCF7C5FA6169FB
:1045500007463046FCF7CAFB216A06462846FCF7A8
:10456000C5FB01463046FCF7B9FA394604F06EFF48
:10457000216A2060A069FCF7B9FBE1690546606922
:10458000FCF7B4FB01462846FCF7A6FA4FF0404181
:10459000FCF7ACFB04F00CFFE66960603146304686
:1045A000FCF7A4FB01464FF07C50FCF795FA256A16
:1045B000074629462846FCF799FB01463846FCF792
:1045C0008BFAA16907463046FCF790FB6169064605
:1045D0002846FCF78BFB01463046FCF77FFA39464C
:1045E00004F034FF804905462068FCF77FFB7E49D4
:1045F000206082466068FCF779FB7B496060074673
:1046000005F10040FCF772FBE168FCF765FA7749B9
:104610000546FCF709FD48B129467448FCF75CFAE9
:1046200001467348FCF758FAA06007E07049284635
:10463000FCF718FD002840F0C480A5606D4D6E4E5B
:10464000686BFBF7F1FE62A3D3E90023FBF740FFA1
:10465000804630688946FBF7E7FE02460B46404637
:104660004946FBF783FD5CA3D3E90023FBF730FF4A
:10467000804650468946FBF7D7FE59A3D3E900236D
:10468000FBF726FF02460B4640464946FBF76EFD08
:10469000FCF7CEF982462060A86BFBF7C5FE4CA361
:1046A000D3E90023FBF714FF804670688946FBF7C7
:1046B000BBFE02460B4640464946FBF757FD46A364
:1046C000D3E90023FBF704FF804638468946FBF711
:1046D000ABFE43A3D3E90023FBF7FAFE02460B46E9
:1046E00040464946FBF742FDFCF7A2F9834660606D
:1046F000B068FBF799FEEF6B804638468946FBF7BA
:1047000093FE33A3D3E90023FBF7E2FE02460B46F8
:1047100040464946FBF72AFD2FA3D3E90023FBF7C8
:10472000D7FE8046A0688946FBF77EFE2CA3D3E91E
:104730000023FBF7CDFE02460B4640464946FBF7F9
:1047400015FDFCF775F9A0602C4C80462068FBF73E
:104750006BFE21A3D3E90023FBF7BAFECDE90001EC
:1047600007F10040FBF760FE1DA3D3E90023FBF730
:10477000AFFE02460B46DDE90001FBF7F7FCFCF754
:1047800057F900210746C5F884005046FCF7A6F902
:1047900000218146A8675846FCF7A0F9C5F880803B
:1047A000E867C5F88890C5F88C00C5F89080C6F811
:1047B00000A0C6F804B0C6F80880276003B0BDE8C2
:1047C000F08F29460A48FCF787F90146074829E790
:1047D000FCA9F1D24D62703F666666666666EE3F82
:1047E0009A9999999999A93FE02E6542000034C39E
:1047F00000003443F80C00209C040020A804002092
:1048000038B5044602614FF07E501D46FCF722FB8E
:104810004FF07E53636100236062E560A361E36152
:10482000236238BD2DE9F04F834693B008465249C4
:1048300015461C46FCF75AFA4F4981462846FCF7B4
:1048400055FA4D4982462046FCF750FADBF81850DD
:10485000DBF820300290494605F100400093FCF758
:1048600045FADBF81C40019021465046FCF73EFA21
:10487000019B01461846FCF72FF900990190029818
:10488000FCF734FA019B01461846FCF725F94FF076
:104890007C51FCF72BFADBF814300490194648469B
:1048A0000193FCF723FA214603900298FCF71EFAC5
:1048B000039B01461846FCF711F9009903905046F6
:1048C000FCF714FA039B01461846FCF705F94FF074
:1048D0007C51FCF70BFA019905905046DDF8708089
:1048E0001D9F1E9EFCF702FA294603900298FCF7D2
:1048F000FDF9039B01461846FCF7EEF8009903907A
:104900004846FCF7F3F9039B01461846FCF7E6F826
:104910004FF07C51FCF7EAF9019906900298FCF7F8
:10492000E5F9294602905046FCF7E0F9029B014662
:104930001846FCF7D3F8214682464846FCF7D6F9DC
:1049400001465046FCF7C8F84FF07C51FCF7CEF911
:10495000002107904046FCF75DFB78B10021384606
:10496000FCF758FB50B100213046FCF753FB002800
:1049700040F0988102E000BF35FA8E3C4146404647
:10498000FCF7B4F9394681463846FCF7AFF90146E1
:104990004846FCF7A3F8314681463046FCF7A6F9B5
:1049A00001464846FCF79AF8FFF78EFD814601461E
:1049B0004046FCF79BF9494602903846FCF796F9C9
:1049C000494603903046FCF791F901990990084651
:1049D000FCF784F829460A902846FCF77FF8214620
:1049E0000B902046FCF77AF800990C900846FCF7EB
:1049F00075F84FF081410D900198FCF777F94FF071
:104A0000814180462846FCF771F94FF08141074605
:104A10002046FCF76BF94FF0824108902846FCF7DE
:104A200065F94FF0824181462046FCF75FF929463F
:104A30000E902846FCF75AF9214606462046FCF718
:104A400055F9009982460846FCF750F951460F90F7
:104A50004046FCF74BF90C9910900298FCF746F988
:104A6000109B01461846FCF739F831461090404635
:104A7000FCF73CF9109B01461846FCF72FF80B9900
:104A800080460398FCF732F901464046FCF724F8CB
:104A9000019911900846FCF729F94FF08141FCF784
:104AA00025F90F9980463846FCF720F90D991090AA
:104AB0000298FCF71BF9109A01461046FCF70CF817
:104AC000414610902846FCF711F9109A014610460D
:104AD000FCF704F80A9910900398FCF707F9109A6C
:104AE00001461046FBF7F8FF3946FBF7F5FF314664
:104AF00010904846FCF7FAF8109A01461046FBF76A
:104B0000EDFF514610904846FCF7F0F8109A014628
:104B10001046FBF7E3FF394681460998FCF7E6F8B3
:104B200001464846FBF7DAFF414681462046FCF73E
:104B3000DDF80A9907460298FCF7D8F8014638468E
:104B4000FBF7CCFF0F9907460898FCF7CFF8014612
:104B50003846FBF7C3FF0D9907460398FCF7C6F8E4
:104B600001463846FBF7B8FF0899FBF7B5FF314619
:104B700007460E98FCF7BAF801463846FBF7AEFF39
:104B8000514607460E98FCF7B1F801463846FBF748
:104B9000A5FF089907460998FCF7A8F8014638468A
:104BA000FBF79CFF4FF0814180463046FCF79EF8B2
:104BB0000099FCF79BF80B9906460298FCF796F8CB
:104BC00001463046FBF788FF4FF0814106465046CC
:104BD000FCF78CF80099FCF789F801463046FBF7A2
:104BE0007DFF0C9906460398FCF780F80146304695
:104BF000FBF772FF119B8246194618460293FCF799
:104C000075F8494606464846FCF770F801463046B6
:104C1000FBF764FF414606464046FCF767F801464D
:104C20003046FBF75BFF514606465046FCF75EF800
:104C300001463046FBF752FFFFF746FC029BDBF8CC
:104C40001060074601461846FCF750F83146FCF75D
:104C50004DF801460498FBF73FFF3946049048465B
:104C6000FCF744F83146FCF741F801460598FBF79C
:104C700033FF394605904046FCF738F83146FCF7DB
:104C800035F801460698FBF727FF3946069050464F
:104C9000FCF72CF83146FCF729F801460798FBF79A
:104CA0001BFF0790DBF8246004983146FCF71EF8E0
:104CB0000199FBF713FF314607460598FCF716F8F4
:104CC0002946FBF70BFF314680460698FCF70EF8A5
:104CD0002146FBF703FF314681460798FCF706F8AB
:104CE0000099FBF7FBFE394605463846FBF7FEFF09
:104CF000414604464046FBF7F9FF01462046FBF7D4
:104D0000EDFE494604464846FBF7F0FF01462046C3
:104D1000FBF7E4FE294604462846FBF7E7FF014679
:104D20002046FBF7DBFEFFF7CFFB04460146384683
:104D3000FBF7DCFF2146CBF814004046FBF7D6FF1B
:104D40002146CBF818004846FBF7D0FF2146CBF8A8
:104D50001C002846FBF7CAFFCBF82000584613B0CA
:104D6000BDE8F04FFFF7DCBB1FB500F053FE00F0CD
:104D7000DDFE00F02BFF00F0BFFF084908480B6B79
:104D80000293CB6A01938B6A0093CB6B8A6B496B5E
:104D9000FFF748FD05B05DF804FB00BFF80C0020EC
:104DA0003808002038B51B4C2378632B07D9BDE8A1
:104DB000384000224FF400511748FCF7FBBE6568ED
:104DC00002F088FD854218D202F084FD2378FA3083
:104DD00060602BB16178DA1C9142C4BF002262701E
:104DE00062789A420AD2A27842B93BB14FF400519C
:104DF0000948FCF7DFFE0123A37038BD01224FF400
:104E000000510548FCF7D6FE637801336370002338
:104E1000F2E700BFA0100020000C014038B502F0FE
:104E200059FD174C236898421DD902F053FD154BCC
:104E3000FA305B782060144C3BB1144A2178127828
:104E400003329142C4BF002222702278104D9A4250
:104E50000AD22A7842B93BB14FF400510D48FCF711
:104E6000A9FE01232B7038BD01224FF400510948DF
:104E7000FCF7A0FE2378013323700023F2E700BF84
:104E8000640800207C0A00206108002068080020D7
:104E900060080020000C0140F0B50024054F064ECC
:104EA0003D1933191034402C0FCB85E80F00F7D192
:104EB000F0BD00BFAC040020E0B20008354B2DE986
:104EC000F04FB3F9562085B0B2F5E16FC4BF4FF48F
:104ED000E162A3F85620B3F956904FF0000A484615
:104EE000FBF7B0FE2C4B83465B78002701934FF411
:104EF000FA632A4D2A4C2B4EA5F17C086168D8F83C
:104F0000E8000393FBF7F2FE216802905846FBF796
:104F1000EDFE029A01461046FBF7E0FDA168029003
:104F2000D8F8EC00FBF7E2FE029A01461046FBF7C8
:104F3000D5FDE1680290D8F8F000FBF7D7FE029AA1
:104F400001461046FBF7CAFDFCF7ACF800B200289A
:104F5000ACBF3080A6F800A0B6F90020039BB2F5E4
:104F6000FA6FC8BF3380B9F1C70F01DD019A32B9BA
:104F7000A6F800A02F66EF662F60EF60AF610A4AC7
:104F80001034A24206F1020605F10405B6D105B0BF
:104F9000BDE8F08FF40A00207C0A0020F008002011
:104FA000AC0400206A080020EC0400204FF081428D
:104FB000C26402654FF07E52314B02610360314B97
:104FC000426143608360304B82618362C3620363EA
:104FD000C36103624362436683662C4B4FF0804299
:104FE000036743678367002310B52949294C41654E
:104FF000C46042638263C263026442648264816506
:10500000C1650166C466C367C0F88030C0F88430EB
:10501000C0F88830C0F88C30C0F89030C0F89430B8
:10502000C0F89830C0F89C30C0F8A030C0F8A43068
:10503000C0F8A830C0F8AC30C0F8B030C0F8B43018
:10504000C0F8B830C0F8BC30C0F8C030C0F8C430C8
:10505000C0F8C830C0F8CC30C0F8D030C0F8D43078
:10506000C0F8D830C0F8DC30C0F8E030C0F8E43028
:10507000C0F8E830C0F8EC30C0F8F03010BD00BF28
:105080006F12833B000070410000A0400000FA4313
:1050900000004040000020412DE9F74FBA4C4FF08E
:1050A0007E502668DFF804B33146FBF7D3FEB74DD8
:1050B000B74BDBF878901860B5F95000FBF7C2FDEC
:1050C0004946FBF709FDA16AC4F8AC000746FBF7A7
:1050D0000DFE3146FBF70AFEE16FFBF7FFFCDFF840
:1050E000B88282464146FBF7BDFFCDF800B00028EC
:1050F00000F08D80C4F87C80D4F8D0104846FBF7CF
:10510000EBFC3146FBF7A6FE61688246C4F8A000BE
:105110003846FBF7EBFDE16FFBF7E0FCE16C07467F
:105120005046FBF7E3FD01463846FBF7D5FC994FA7
:1051300082463946FBF796FF002875D0C4F8E87020
:10514000009BC4F8D090D3F87C90B5F95200FBF7DF
:1051500079FD4946FBF7C0FCE16AC4F8B00082461D
:10516000FBF7C4FD3146FBF7C1FDD4F88010FBF717
:10517000B5FC89498346FBF775FF002861D0C4F868
:105180008080D4F8D4104846FBF7A6FC3146FBF7E4
:1051900061FEA1688346C4F8A4005046FBF7A6FD53
:1051A000D4F88010FBF79AFC216D82465846FBF735
:1051B0009DFD01465046FBF78FFC76498246FBF782
:1051C00051FF00284BD0C4F8EC70009BC4F8D49079
:1051D000D3F88490B5F95400FBF734FD4946FBF74A
:1051E0007BFC216BC4F8B4008246FBF77FFD31469F
:1051F000FBF77CFDD4F88410FBF770FC664983460E
:10520000FBF730FF002837D0C4F884803EE0DFF899
:105210008CB150465946FBF707FF10B9C4F87CA083
:105220006AE7C4F87CB067E7DFF87CB150465946BE
:10523000FBF7FAFE10B9C4F8E8A081E7C4F8E8B0BB
:105240007EE7564B584619460193FBF7EDFE019B4E
:1052500010B9C4F880B094E7C4F8803091E7DFF863
:1052600048B150465946FBF7DFFE10B9C4F8ECA030
:10527000ABE7C4F8ECB0A8E7DFF820815846414618
:10528000FBF7D2FE0028BFD1C4F884B0D4F8D81000
:105290004846FBF721FC3146FBF7DCFDE16806469A
:1052A000C4F8A8005046FBF721FDD4F88410FBF7A2
:1052B00015FC616D80463046FBF718FD01464046FF
:1052C000FBF70AFC33498046FBF7CCFE50B3C4F829
:1052D000F070334EC4F8D890B778012F40F0858134
:1052E00030484FF48041FCF76AFCB5F95000F77084
:1052F0000A2823DDFBF7A6FCFBF796F820A3D3E9E9
:105300000023FBF7E5F8804660688946FBF78CF8D8
:1053100002460B4640464946FAF728FFFBF788FB52
:1053200060600EE0204E40463146FBF77DFE10B92E
:10533000C4F8F080CDE7C4F8F060CAE710F10A0FB6
:10534000D8DBB5F952000A2832DDFBF77BFCFBF70E
:105350006BF80BA3D3E90023FBF7BAF88046A06AE9
:105360008946FBF761F802460B4640464946FAF784
:10537000FDFEFBF75DFBA0621DE000BFAFF3008008
:10538000FCA9F1D24D62403F74080020F40A0020CD
:10539000680900200000484400004843000048C35A
:1053A0007C0A0020000C0140000048C4F80C0020DA
:1053B00010F10A0FC9DBB5F954000A2817DDFBF715
:1053C00041FCFBF731F8C0A3D3E90023FBF780F8D9
:1053D0008046E06C8946FBF727F802460B464046BC
:1053E0004946FAF7C3FEFBF723FBE06402E010F145
:1053F0000A0FE4DB6368A360A36AE362E36C2365DE
:10540000B578002D40F0EE80F778012F40F0EA806B
:105410003A464FF48041B048F570FCF7CBFB3A4672
:105420004FF40051AC48FCF7C5FB6068FAF7FCFF8D
:105430000022AA4BFBF74CF80022A94BFAF796FE84
:1054400003F096FD0022A54BFBF76CF9FBF7F0FA91
:105450006060A06AFAF7E8FF0022A04BFBF738F87B
:1054600000229F4BFAF782FE03F082FD00229B4B45
:10547000FBF758F9FBF7DCFAA062E06CFAF7D4FF0F
:105480000022964BFBF724F80022954BFAF76EFEAC
:1054900003F06EFD0022914BFBF744F9FBF7C8FACD
:1054A000E064A068FAF7C0FF00228C4BFBF710F80D
:1054B00000228B4BFAF75AFE03F05AFD0022874B6D
:1054C000FBF730F9FBF7B4FAA060E06AFAF7ACFF3B
:1054D0000022824BFAF7FCFF0022814BFAF746FECE
:1054E00003F046FD00227D4BFBF71CF9FBF7A0FA09
:1054F000E062206DFAF798FF0022784BFAF7E8FF98
:105500000022774BFAF732FE03F032FD0022734B94
:10551000FBF708F9FBF78CFA2065E068FAF784FFDF
:1055200000226E4BFAF7D4FF00226D4BFAF71EFEF5
:1055300003F01EFD0022694BFBF7F4F8FBF778FA45
:10554000E060206BFAF770FF0022644BFAF7C0FFAF
:105550000022634BFAF70AFE03F00AFD00225F4BBC
:10556000FBF7E0F8FBF764FA2063606DFAF75CFF85
:1055700000225A4BFAF7ACFF0022594BFAF7F6FD1E
:1055800003F0F6FC0022554BFBF7CCF8FBF750FA82
:10559000544E606556F8041F2846FEF75EFC05F180
:1055A0000C00716AFEF759FC05F11800B16C043566
:1055B000FEF753FC0C2DEDD10A24474D1920FBF7C3
:1055C000DFFD00224FF400412846FCF7F3FA1920D2
:1055D000FBF7D6FD01224FF400412846FCF7EAFA1A
:1055E000013CEBD103B0BDE8F08F022F7FF408AF90
:1055F00001224FF480413848FCF7DCFA36484FF47A
:105600000051FCF7DCFAB5F950000A2817DDFBF76A
:1056100019FBFAF709FF2EA3D3E90023FAF758FF85
:105620008046E0688946FAF7FFFE02460B46404690
:105630004946FAF79BFDFBF7FBF9E06002E010F149
:105640000A0FE4DBB5F952000A2817DDFBF7FAFA76
:10565000FAF7EAFE1EA3D3E90023FAF739FF8046E2
:10566000206B8946FAF7E0FE02460B464046494663
:10567000FAF77CFDFBF7DCF9206302E010F10A0F7A
:10568000E4DBB5F954000A2817DDFBF7DBFAFAF77B
:10569000CBFE0DA3D3E90023FAF71AFF8046606D15
:1056A0008946FAF7C1FE02460B4640464946FAF7DC
:1056B0005DFDFBF7BDF96065A2E610F10A0FE4DBC2
:1056C0009EE600BFAFF300802D431CEBE2360A3F9D
:1056D000FCA9F1D24D62403F000C01400000244083
:1056E0000000E03F74080020074A084BB2F90010A0
:1056F0005963B2F902109963B2F90410B2F90620A5
:10570000D9631A64704700BF6A080020000800408F
:1057100000231A46C2540133802BFBD180F880202D
:1057200080F8812080F8823080F883200120704743
:105730008822024B02FB0030FFF7EABF6C09002011
:1057400090F8803090F88100013303F07F031B1A3A
:1057500058425841704708B50246FFF7F1FF60B95B
:1057600092F880300120DBB2D15492F880300133BE
:1057700003F07F0382F8803008BD002008BD0000E0
:10578000037F012B1DD10368B3F1804F40F095805A
:10579000524A926812F0010F514A08D00021596311
:1057A000596B11601A6A42F002021A627047596B13
:1057B00010681162091AA2F840101A6A22F0020257
:1057C000F3E7022B3DD10368B3F1804F0DD1434A7B
:1057D000926812F0020F424A18D000219963996B27
:1057E00051601A6A42F020021A623E4A934274D112
:1057F0003A4A926812F0800F394A18D00021996312
:10580000996BD1601A6A42F02002CEE7996B50681A
:105810005162091AA2F842101A6A22F02002E3E744
:10582000596B90689162091AA2F84410C5E7996B08
:10583000D068D162091AA2F846101A6A22F0200232
:10584000B3E7042B47D10368264A934245D102F5BA
:105850008432926812F0010F214A07D00021D963E7
:10586000D96B11611A6A42F400729EE7D96B106914
:105870001163091AA2F848101A6A22F4007294E718
:105880000368184A934228D102F58432926812F0D4
:10589000020F134A07D000211964196C51611A6A6A
:1058A00042F4005281E7196C50695163091AA2F859
:1058B0004A101A6A22F4005277E70A4A93420CD13E
:1058C000064A926812F0400F054AA9D00021596398
:1058D000596B916066E7082BD2D0704700080140F1
:1058E000F40A002000040040054B1B7813B1012B83
:1058F00004D07047034A044B1A607047034AFAE722
:1059000009000020FFEBBF4074070020FFEBBF3F02
:10591000084B1B78032B06D8DFE803F00206080AC1
:10592000054A064B1A607047054AFAE7054AF8E748
:10593000054AF6E7ED0400200000FA3B6C07002062
:1059400000007A3C0000FA3C00007A3D0A4B1B78CC
:10595000032B07D8DFE803F002070A0D4FF062526D
:10596000064B1A6070474FF06452F9E74FF06652E9
:10597000F6E74FF06852F3E7EC0400205C070020E4
:105980002DE9F74F4FF0000900264FF00107C846F8
:105990001B4B1C4C1B68DFF874A0DFF874B000933D
:1059A000194B4B44B3F91400FBF74CF954F8041F9E
:1059B000FBF792F80099FBF799F931460546FBF79A
:1059C00051FB3B46019390B159462846FBF736FB05
:1059D000019B00B94346DBB273B944F82C5C09F172
:1059E0000209B9F1060FDBD103B0BDE8F08F5146D3
:1059F0002846FBF72DFBEBE744F82C6CEFE700BFE4
:105A00006C070020540D0020F80C00200000A0C0FE
:105A10000000A040062337B50E4C00930122234618
:105A20004321D220FEF7ACFCA378E178627941EA09
:105A3000032123792578607842EA0322064B40EA65
:105A400005209882D9821A8303B0BDE83040FFF761
:105A500097BF00BF980D0020F80C00202DE9F341FE
:105A60002A4E2B4C308800283CD00023294A1D4662
:105A7000114604F1180EB0F5007F08BF1560BEF99D
:105A800002C017682EF8025F674442F8047BE718EB
:105A900004330C2B7D65EED1012820D14B680F68B3
:105AA0004FEA63281C4B7F1218686765C4F858805A
:105AB0008D68FBF7F7FA6D12281A43463A461749E4
:105AC000E0650090164802F025FE1548FAF740FB05
:105AD0004FF47A7382B212491248FDF75DFF3388A2
